:100000000C943E000C9448000C9448000C9448005A
:100010000C9448000C9448000C9448000C94480040
:100020000C9448000C9448000C9448000C94480030
:100030000C9448000C9448000C9448000C94480020
:100040000C9448000C9448000C9448000C94480010
:100050000C9448000C9448000C9448000C94480000
:100060000C9448000C9448000C9448000C944800F0
:100070000C9448000C9448000C94480011241FBEB6
:10008000CFEFD8E0DEBFCDBF0E9454000C947500C6
:100090000C9400006AE00E946900292F30E1839FE0
:1000A000C0011124822B0895CF938FEF81B9C0E056
:1000B0008C2F0E944A0082B987EA91E60197F1F7F6
:1000C00000C00000CF5FC43699F780E090E0CF9188
:1000D0000895991B79E004C0991F961708F0961BA4
:0E00E000881F7A95C9F780950895F894FFCF90
:00000001FF
