:100000000C943E000C9448000C9448000C9448005A
:100010000C9448000C9448000C9448000C94480040
:100020000C9448000C9448000C9448000C94480030
:100030000C9448000C9448000C9448000C94480020
:100040000C9448000C9448000C9448000C94480010
:100050000C9448000C9448000C9448000C94480000
:100060000C9448000C9448000C9448000C944800F0
:100070000C9448000C9448000C94480011241FBEB6
:10008000CFEFD8E0DEBFCDBF0E945F000C949E0092
:100090000C9400006AE070E00E948A00282F862FEE
:1000A0006AE00E947E0030E1939FC0011124822B00
:1000B000089564E670E00E948A00862F08958FEF0D
:1000C00081B987B904E610E0C0E0D0E0CE010E941B
:1000D0004A0082B9CE01B8010E948A0068B92FE9AE
:1000E00086E891E0215080409040E1F700C0000098
:1000F0002196C83E23E0D20749F7E6CF991B79E065
:1001000004C0991F961708F0961B881F7A95C9F7A7
:1001100080950895AA1BBB1B51E107C0AA1FBB1FF6
:10012000A617B70710F0A61BB70B881F991F5A9583
:10013000A9F780959095BC01CD010895F894FFCF63
:00000001FF
