:100000000C943E000C9448000C9448000C9448005A
:100010000C9448000C9448000C9448000C94480040
:100020000C9448000C9448000C9448000C94480030
:100030000C9448000C9448000C9448000C94480020
:100040000C9448000C9448000C9448000C94480010
:100050000C9448000C9448000C9448000C94480000
:100060000C9448000C9448000C9448000C944800F0
:100070000C9448000C9448000C94480011241FBEB6
:10008000CFEFD8E0DEBFCDBF0E944A000C946200E3
:100090000C94000014B88FEF85B98AB91BB883B1EE
:1000A000982F9F709A3008F0807F982F907F913919
:1000B00008F08F708BB983E294EF0197F1F700C0DD
:0800C0000000EDCFF894FFCF22
:00000001FF
