:100000000C9447000C9451000C9451000C94510036
:100010000C9451000C9451000C9451000C9451001C
:100020000C9451000C9451000C9451000C9451000C
:100030000C9451000C9451000C9451000C945100FC
:100040000C9451000C9451000C9451000C945100EC
:100050000C9451000C9451000C9451000C945100DC
:100060000C9451000C9451000C9451000C945100CC
:100070000C9451000C9451000C9451006D006F00D1
:10008000710073007500770079007B007D001124FA
:100090001FBECFEFD8E0DEBFCDBF0E9453000C944F
:1000A0008D000C94000014B88FEF85B98AB91BB885
:1000B00029E038E047E056E065E074E0C3E0D2E0D4
:1000C00011E0E3B18E2F90E0FC013197E930F105AA
:1000D000B0F4E25CFF4F0C9487001BB911C0DBB990
:1000E0000FC0CBB90DC07BB90BC06BB909C05BB9F0
:1000F00007C04BB905C03BB903C02BB901C01BB841
:1001000083E294EF0197F1F700C00000DACFEE0F21
:0E011000FF1F0590F491E02D0994F894FFCFA5
:00000001FF
